:020000040800F2
:10000000A00B0020D5000008E51F0008771E00089F
:1000100000000000000000000000000000000000E0
:100020000000000000000000000000003721000870
:100030000000000000000000352100083921000800
:10004000E7000008E7000008E7000008E7000008F4
:10005000E7000008E7000008E7000008E7000008E4
:1000600000000000E7000008E7000008E7000008C3
:10007000E7000008E7000008E7000008E7000008C4
:10008000E7000008E7000008E7000008E7000008B4
:1000900000000000E7000008E7000008E700000893
:1000A000E7000008E7000008E700000861260008F4
:1000B00075260008E70000080000000000000000AE
:1000C0000348854600F0ACFB00480047293B000888
:1000D000A00B00200448804704480047FEE7FEE7E5
:1000E000FEE7FEE7FEE7FEE7C9210008C1000008C1
:1000F00030B50B46014600202022012409E00D46C0
:10010000D5409D4205D31D469540491B2546954047
:1001100040191546521E002DF1DC30BD70B500248B
:100120002546002801DA01244042002901DA012590
:100130004942FFF7DDFFAC4200D04042002C00D026
:10014000494270BDF0B51FB40646002082B0054696
:100150004024019100901BE0019922460F46304651
:1001600000F02FF9049A059B801A994110D310468C
:100170001946224600F015F9361A8F41019722469A
:1001800001200021009F00F00CF938184D4100902B
:100190002046641E0028DFDC019B00982946324679
:1001A00007B0F0BD0549064A08685043054A801863
:1001B00008604008704701490860704790000020BF
:1001C0006D4EC6413930000003460B439B0703D0F8
:1001D00009E008C9121F08C0042AFAD203E00B780C
:1001E0000370401C491C521EF9D27047D2B201E084
:1001F0000270401C491EFBD270470022F6E710B582
:1002000013460A4604461946FFF7F0FF204610BD84
:1002100010B5044605E00B780370401C002B00D09D
:10022000491C521EF7D2204610BD421C0178401CCA
:100230000029FBD1801A704710B5002200E0521C43
:10024000835C8C5CA34201D1002BF8D1D8B2E1B21F
:10025000401A10BD30B505460020034600E05B1C87
:10026000934205D2EC5CC85C201A01D1002CF6D177
:1002700030BD000070B5104D002800D12868002462
:1002800014E00A4602E09E4203D0521C1378002B71
:10029000F9D1DAB2224307D0002B06D0002C04D0CB
:1002A00000210170401C04E00446401C0678002E2A
:1002B000E7D12860204670BD94000020F7B5009C6F
:1002C0000F4600262578641C002D05D000F08AF822
:1002D0000068405DC007F5D12B2D02D02D2D18D020
:1002E000641E39462046029A00F080F8002F04D0A0
:1002F0003968A14201D100993960710502240029B1
:100300000BDA4042002803DD02F0FAFA0460A0078D
:10031000FEBD012080020643E3E70028F8DA02F080
:10032000EFFA04600048FEBDFFFFFF7FF7B582B023
:100330000F460026029C02F0E3FA0090006801904C
:100340002578641C002D05D000F04CF80068405D55
:10035000C007F5D12B2D02D02D2D1CD0641E009886
:100360000021016039462046049A00F03FF801461A
:10037000002F04D03868A04201D10298386000985C
:10038000006802280BD00098019A0260700506D51B
:10039000484205B0F0BD012080020643DFE7084671
:1003A000F7E710B5202A04DB0146203A91400020EF
:1003B00010BD914020239C1A0346E340194390400E
:1003C00010BD10B5202A04DB0846203AD040002199
:1003D00010BD0B46D340D0402024A21A91400843C0
:1003E000194610BD0048704790590008F7B582B013
:1003F000029C00272078641C15460197302802D003
:10040000002D15D015E020780127641C782804D031
:10041000582802D0002D09D00BE0002D01D0102D5E
:1004200007D1002710252078641C02E0082500E091
:100430000A250026009610E0009901276943081854
:10044000020C294680B2714300908E18380486420F
:1004500001D3012001902078641C294600F005FAA0
:100460000028E9DA0398002805D0002F01D0641E87
:1004700000E0029C04600198002806D002F040FAD7
:1004800002210160C81E05B0F0BD00993004084388
:10049000F9E70000F0B507460846584087B0C00F9E
:1004A000049048000E46590040084908BC1A88418B
:1004B00005D2384631461E4617460B4602465800BE
:1004C000400810434CD0300D039040055900400DBA
:1004D000490D0590401A0290402872DA1803012154
:1004E000000B09050843019004980092002805D0EC
:1004F00001995242002088410092019002984021C7
:100500000A1A01990098FFF74CFF05460C466B4606
:1005100007CB00F097F9C0197141039A0E0D002323
:10052000D71756401A467A40164344D0049A002AF8
:100530002DD0029A012A039A15DC1205C01A9141A6
:1005400001263605001C7141D20F059ED20700938B
:10055000019202962A46234600F0A3F907B0F0BDA7
:1005600038463146FAE71605224A0F46B218C01A35
:10057000B74101210905001C4F4100187F41114678
:1005800018187941E20F10436D19644113E0E20736
:100590006D0815436408C2071443039A0126120527
:1005A000C01A91413605001C7141CE074008304306
:1005B0004908C01851412A46234600F065F9CDE7A5
:1005C000FFE7049801224000C117121A00238B4153
:1005D00004983146C417381AA141EEE730B401241B
:1005E000E407634030BC55E730B40124E4076140C0
:1005F00030BC4FE70000E0FFF0B51FB488B00B99A6
:100600000998002448400999C00F490049080991F8
:10061000C0070B990090490049080B910999089867
:10062000A64608431CD00B990A98084318D009988D
:1006300001244000420D4800410D099824050003A3
:10064000000B204309900B980003000B20430B90F4
:1006500050181C494018002201901446104605E02D
:10066000002001460DB0F0BD032801DA034600E08A
:1006700003239C46C11A0AAE0AE05F0008ADED5B99
:100680004F00F75B7D430027AA187C41491C5B1E85
:100690006145F2DD410004AB5A522104120C0A43B9
:1006A000240C401C0828DFDB01980290009970465A
:1006B00001910090059B049A0799069800F0F1F8C3
:1006C000D0E700000DFCFFFFF0B50C465C4085B0A4
:1006D000E40FE40703944C00002664085900944694
:1006E000490802460296224321D062460A431ED0A0
:1006F0006200570D4A000E032303550D01240246E4
:100700002C492405781B1B0B360B4018234326432A
:10071000614600901C46501AB44103D30098401C17
:10072000009002E0921800985B41002803DA002054
:10073000014605B0F0BD00200121090507468646A7
:1007400011E064461D46141BB54106D36546521B95
:10075000B341744607430C43A646CD0740084908F9
:10076000284392185B4105460D43EAD110461843D1
:1007700013D06046194650407140084306D0604689
:10078000101AB34106D20122002306E00022012301
:10079000DB0702E00122D2435310009874460105A2
:1007A000381C6141029C039D0019694100F06CF8FE
:1007B000BFE70000FD0300004A0009030123090B05
:1007C0001B0519430A4B10B5520D9A4202DA00205C
:1007D000014610BD064B34339A4203DC9A1AFFF7E8
:1007E000F0FD10BD034BD218FFF7DBFD10BD00007C
:1007F000FF030000CDFBFFFF10B5002904DB01243F
:10080000E40740428C412146002B04DB1C460123B7
:10081000DB075242A341994200D1904210BD000033
:10082000064C0125064E05E0E36807CC2B430C3C43
:1008300098471034B442F7D3FFF746FC1C5A00081F
:100840003C5A000810B5202A06DBCB170846203A90
:100850001041C1170B4306E00B461341D040202442
:10086000A21A91400843194610BD3A2800D23038E8
:10087000202302469A43412A01D310463738884242
:1008800001D30020C043704710B5002B08DA0024C4
:10089000401C614192185B411A4301D1400840005D
:1008A00010BDF0B51FB482B005460C0003D0084659
:1008B00001F0E0FF02E001F0DDFF20300246009091
:1008C00021462846FFF76DFD049B059A04460F4616
:1008D00018431143084314D0184610431BD0009806
:1008E00040210A1A18460599FFF76BFD05460E468A
:1008F000009A05990498FFF754FD084305D001209C
:1009000004E02046394607B0F0BD0020C11705437A
:100910000E432C43374300990E986305401A79051E
:10092000E40A00220C43FD0A0A3002D500200146E9
:10093000E9E70105101969410C9C0D9D00196941F9
:10094000FFF7A2FFDFE70000F0B5644887B0416B16
:10095000022529434163406BEE022840012405270C
:1009600000963F0705900194694603950294384626
:1009700000F008FA20200090019469460395029443
:10098000384600F0FFF980200090019469460395F5
:100990000294384600F0F6F901223146384600F05C
:1009A000A4FA01222021384600F09FFA012280217A
:1009B000384600F09AFA0122D4022146384600F067
:1009C00094FA642000F0CCF900222146384600F069
:1009D0008CFA642000F0C4F901222146384600F068
:1009E00084FA0021AE2001F076FB0021022001F004
:1009F00072FB0021102001F06EFB0021402001F06D
:100A00006AFB0021812001F066FB0021CF2001F06C
:100A100062FB0021A12001F05EFB0021C82001F053
:100A20005AFB0021A62001F056FB0021A82001F06E
:100A300052FB00213F2001F04EFB0021D32001F0AA
:100A40004AFB0021084601F046FB0021D52001F0B9
:100A500042FB0021802001F03EFB0021D92001F063
:100A60003AFB0021F12001F036FB0021DA2001F0F1
:100A700032FB0021122001F02EFB0021DB2001F0CF
:100A80002AFB0021402001F026FB0021202001F05C
:100A900022FB0021022001F01EFB00218D2001F02D
:100AA0001AFB0021142001F016FB0021A42001F004
:100AB00012FB0021A62001F00EFB0021AF2001F067
:100AC0000AFB0021AF2001F006FB01F08CFA0021A7
:100AD000084601F0A6FA07B0F0BD00000010024081
:100AE00010B50C4BDA695206FCD5002206E0845C96
:100AF0009C62DC696406FCD5521CD2B28A42F6D3F1
:100B00000549002088704870FF2101310348FFF734
:100B100074FB10BD004400407400002080020020DF
:100B200010B5044600F010FC0349FFF7E1FA6043FA
:100B3000401EFDD210BD000000093D0010B5282068
:100B4000FFF7EEFF0421044800F0CAF9002801D0A5
:100B5000002010BD012010BD0004005000B504228B
:100B600085B00121084B0028009203D0002002919B
:100B7000019003E00220019102910390694618461A
:100B800000F000F905B000BD0004005010B50C4C99
:100B90000421204600F0A4F90028F9D02820FFF70E
:100BA000BFFF0421204600F09BF9002806D0042155
:100BB000204600F095F90028F9D1012010BD000071
:100BC0000004005070B50024254601266006040E7E
:100BD000FFF7DCFF002800D034436D1CEDB2082D78
:100BE000F4D3204670BD000070B500F02DF8FFF77B
:100BF000A5FF002822D0124C0421204600F070F9F5
:100C00000028F9D00421204600F06AF90028F9D123
:100C100000250C4CFFF7D6FF60556D1CEDB2052D7D
:100C2000F8D320786178E2784018A17889184018C4
:100C30002179884201D1012400E00024204670BDC2
:100C4000000400500000002010B50020FFF786FFD0
:100C500000220421044800F048F9192000F080F82F
:100C60000120FFF77BFF10BD0004005072B6FEE7C5
:100C7000F0B5002808D0014620314A79022A05D073
:100C80000422C263002008710120F0BD02681368CD
:100C90000E24A3431360426C1468FF2301339C436A
:100CA0001460026814686408640014600C4A556893
:100CB000066C1C24264001242746B7403D4355605E
:100CC000826CC56C5560026D002A05D015689D4385
:100CD0001560826D406D42604C7100200871F0BD5E
:100CE00000000240F8B50024024620325179022962
:100CF00003D00421C16301242DE001680B680E2597
:100D0000AB430B6001680B685B085B000B60416CD8
:100D10000B68FF250135AB430B6010494D68066C2D
:100D20001C231E4001231F46B7403D434D60816C8C
:100D3000C56C4D60016D002906D00E681D02AE43E2
:100D40000E60416D856D4D60537100211171816B95
:100D5000002900D088472046F8BD0000000002406E
:100D600070B5044600F0C8F80546601C02D004487F
:100D70000078241800F0C0F8401BA042FAD370BDE0
:100D800080000020FCB5002301259AE022462C4675
:100D90009C4022406FD04E68012E05D0022E03D019
:100DA000112E01D0122E16D186680327B4465E009C
:100DB000B646B7406646BE43B446CF687646B740AF
:100DC0006646374387604668A6430C79E406E40F1D
:100DD0009C4034434460C6685F000324BC40A44682
:100DE000A6438C68BC403443C4604C68022C01D0DC
:100DF000122C14D1DC08A40024180194266A5C0784
:100E0000B646E60E0F24B44000967646A643B64694
:100E10000C69009EB44076462643019C2662046815
:100E20006646B4430E79B607B60FBE402643066049
:100E30004C68E40044D59E08254CB6003419A446FD
:100E4000246E9E07F60E0F27B740BC4305273F07C9
:100E5000B84201D1002710E01E4FB84201D101274E
:100E60000BE01D4FB84201D1022706E01B4FB842EC
:100E700002D1032701E023E00527B740274364465A
:100E80002766134E803634684F689443FF0300D5BD
:100E90001443346074684F689443BF0300D514430F
:100EA00074600B4C26684F689643FF0200D51643CA
:100EB000266066684F689643BF0200D51643666099
:100EC0005B1C0A681446DA4000D05FE7FCBD0000F6
:100ED000001802400004005000080050000C0050B0
:100EE0000069084000D001207047002A01D08161CC
:100EF00070478162704700000148806870470000B9
:100F00008000002001480069704700008075FF1FC5
:100F100001484069704700008075FF1F01488069E3
:100F2000704700008075FF1F0248816802788918A9
:100F3000816070478000002010B5084800240168D7
:100F4000821511430160204600F00AF8002801D004
:100F5000012401E000F028F8204610BD00200240E6
:100F600070B50F4E002431780546002915D07D203C
:100F7000C000FFF7BDF801460A480068FFF7B8F85F
:100F800000F03AFC002808D1042D06D200222946A0
:100F9000401E00F02BF8756000E00124204670BD73
:100FA000800000208C00002008B50948016801225B
:100FB0001143016000681040009005484038C26B42
:100FC00001040A43C263C06B0840009008BD0000E2
:100FD00040100240002805DBC106C90E01208840F0
:100FE000014908607047000000E100E010B501F021
:100FF00065FC10BD10B50F4C2168032252029143CD
:1010000001432160C11FFF39FA390ED10A48062178
:10101000006848430949FFF76BF8401C02E00028CC
:1010200005D0401E61694905F9D4002010BD032098
:1010300010BD0000007000408C00002040420F00F6
:10104000F8B5044600680026664D800358D565480B
:1010500000274038C06BC00009D462484038C26BDA
:1010600001040A43C263C06B0840012700905E4838
:101070000168821511430160FFF73EFF009005E013
:10108000FFF73AFF0099401A022825D85648006811
:10109000C005F5D5E8690321090208400FD0616A4F
:1010A00081420CD0E86903210902EA6988430121E1
:1010B00009040A43EA61EA698A43EA61E861C00710
:1010C0000FD0FFF719FF009008E0FFF715FF009918
:1010D000411A4648814201D9032609E0E8698007A0
:1010E000F3D5E869032109028843616A0843E8618E
:1010F000002F05D03B484038C26B01048A43C263CD
:101100002078C00705D068696168800880000843BE
:1011100068612078C00606D5686903218902884382
:10112000A168084368612088800506D568690321A5
:10113000890488436169084368612088400506D5B1
:101140006869032109058843A1690843686120781B
:10115000800606D56869032109038843E1680843CE
:1011600068612088400411D56869E16980008008C1
:10117000084368610121E0698907884206D119485E
:101180004038C168012212041143C1602068800206
:1011900010D5686901218905226A88431043686176
:1011A000206A884206D10F484038C16801221206E1
:1011B0001143C1602088000512D5686903218903A5
:1011C00088432169084368610121206989038842B5
:1011D00006D104484038C168012212041143C1609D
:1011E0003046F8BD401002400070004088130000F7
:1011F000F8B50F46060043D04D4D28684007400F14
:10120000B84213D22868C008C00038432860FFF7EE
:1012100073FE044605E0FFF76FFE011B454881425F
:1012200061D828684007400FB842F4D13068424C7A
:1012300081070DD5400704D5A0680721090308439D
:10124000A060A0680F2109028843B1680843A0602C
:101250003078C00732D0706801280AD002280BD03D
:1012600000280FD03449403103280ED0C9698907BE
:1012700004E02168890301E021688901002906DB77
:101280000120F8BD21684905F8E7096AEFE7A16880
:10129000C908C9000143A160FFF72EFE009006E0D7
:1012A000FFF72AFE0099411A224881421BD8A06804
:1012B000382108407168C9008842F1D12868400788
:1012C000400FB84217D91A480168C908C900394304
:1012D0000160FFF711FE054607E0FFF70DFE411B19
:1012E0001448814201D90320F8BD11480068400725
:1012F000400FB842F1D13078400706D5A0680721E9
:1013000009038843F1680843A06000F037F8A1683A
:101310003C2289091140094A515CC906C90EC840DE
:101320000749086007480068FFF71AFEF8BD00008B
:10133000002002408813000000100240AC58000852
:101340008C000020840000200148006870470000E5
:101350008C0000200648074900688968064A49044D
:10136000490F8900515CC906C90EC840704700008A
:101370008C00002000100240EC58000810B5204CF2
:10138000A068204A8006400F16D0A0688006410F52
:10139000501001290FD0A1688906490F022912D0E7
:1013A000A0688006400F042823D0A0688006400F64
:1013B000032821D0002010BD206801218004400FA7
:1013C0008140104612E0E1688B07E1689B0F4906F7
:1013D000490F491C032B00D01046FEF789FEE16837
:1013E0004904490E4843E168490F491CFEF780FE55
:1013F00010BD0120C00310BD7D20000210BD000003
:10140000001002400024F400F8B504007ED02078DB
:101410003827C007EF4D002846D0A868E968384053
:101420008907890F102802D008280BD001E0032972
:1014300008D001206268000482420AD12968014371
:10144000296015E0286880032ED560680028DDD06B
:101450002AE0052301211B0489049A422A6802D14B
:101460000A432A60EAE782432A60286888432860A2
:10147000606800280CD0FFF73FFD064604E0FFF748
:101480003BFD801B642873D828688003F7D50BE0E8
:10149000FFF732FD064604E0FFF72EFD801B6428AF
:1014A000F1D828688003F7D42078800769D5A86828
:1014B000E96838408A070721920FC902102802D034
:1014C000002813D001E0022A10D0E068002846D09E
:1014D000286888432169084328602868FF21013172
:1014E00008432860FFF708FD06462CE02A685205ED
:1014F00002D5E268002A89D06A687F231B029A43DA
:1015000063691B021A436A60002800E08DE00ED177
:1015100028688843216908432860286801218004DD
:10152000400F8140AC48FEF7E3FDAC490860AC4891
:101530000068FFF715FD002877D122E0FFF7DCFCFB
:10154000801B02289FD828684005F7D568687F214E
:1015500009028843616909020843686011E029684B
:10156000FF20013081432960FFF7C6FC064605E0F5
:1015700098E0FFF7C1FC801B022884D8286840054A
:10158000F7D42078974E00072ED5A8688006400F24
:1015900003280AD0A0690028306A16D00121084328
:1015A0003062FFF7A9FC07460BE0306A80071BD5C5
:1015B000A06900289FD017E0FFF79EFCC01B0228FF
:1015C00070D8306A8007F7D50EE0400840003062DE
:1015D000FFF792FC074604E0FFF78EFCC01B0228D1
:1015E00060D8306A8007F7D4207840076CD5A868A7
:1015F00000278006400F042818D0E86BC00008D4EC
:10160000E96B012000070143E963E96B0140012711
:10161000009175480168C90519D401688215114304
:101620000160FFF769FC00900DE083E0F06980073E
:101630004AD5A06800287DD046E0FFF75DFC009900
:10164000401A02282ED868480068C005F5D5A16860
:10165000012910D004200529F16911D04908490059
:10166000F161F1698143F161A068002816D0FFF7AC
:1016700043FC00900EE0F06901210843F061F3E7BC
:101680000143F161F7E7FFF737FC0099411A57482A
:1016900081426FD8F0698007F5D50EE0FFF72CFC8A
:1016A000009007E066E0FFF727FC0099411A4F48D9
:1016B00081425FD8F0698007F5D4002F04D0E86B31
:1016C000012109078843E863E06900287FD0A96801
:1016D0008906490F022953D00126360602282868B8
:1016E0000DD0B0432860E86880088000E860E868B2
:1016F0003F490840E860FFF7FFFB04463CE0B04389
:101700002860FFF7F9FB074604E0FFF7F5FBC01B75
:1017100002282FD828688001F7D4616A206AA26A5B
:101720000843E16A120211430843216B0843616BCD
:10173000084300E049E0E9682E4A11400843E860A8
:10174000286830432860E868012109070843E860F9
:10175000FFF7D2FB044604E0FFF7CEFB001B022894
:1017600008D828688001F7D531E0FFF7C5FB001BDA
:10177000022801D90320F8BD28688001F5D426E0AD
:101780000128F8D0E868226A8107890F91421CD1AC
:101790007021626A0140914217D17F21A26A090239
:1017A00001401202914210D11F214904E26A014016
:1017B00091420AD107214906226B0140914204D18E
:1017C000400F616B4007884201D00120F8BD002026
:1017D000F8BD0000001002400024F4008C0000203E
:1017E0008400002040100240007000408813000078
:1017F000FFFFFEEE8C80C111094910B5401E8842E2
:1018000001D9012010BD074C60610321081F01F0C0
:1018100055F80020A06107202061002010BD0000C5
:10182000FFFFFF0000E000E010B5014680310A78BC
:10183000012A15D001220A7024224A600268136826
:101840001468640864001460012252079343002264
:10185000426600680360202048600A70104610BD90
:10186000022010BD7047704770B5044605468034AD
:10187000207801281AD00120207024206060286878
:1018800006680268520852000260286882680723CE
:101890005B069A430A438260284600F09DFC286854
:1018A0000660202060600020207070BD022070BDA6
:1018B00070B50446054680342078012819D00120EF
:1018C0002070242060602868066802685208520070
:1018D000026028688268D200D2080A4382602846E3
:1018E00000F07AFC286806602020606000202070EC
:1018F00070BD022070BD704770477047F8B503682F
:101900000446D96918689A68914D0E462E402546BE
:101910008035002E6CD08F4E8F4F164007403743D6
:101920007FD0CF0706D0C70504D501271F62EB681B
:101930003B43EB608B0708D5D30706D0276802230B
:101940003B62EB6804273B43EB604B0708D5D307AA
:1019500006D0276804233B62EB6802273B43EB6019
:101960000B0709D520230340334305D026680823FD
:101970003362EE681E43EE600B0509D5430107D5BF
:1019800001232668DB023362EB6820263343EB60D9
:10199000EB68002B3AD089060AD520210840C905FA
:1019A0000A40104304D0216F002901D02046884707
:1019B000E86821688968490602D4282108422AD0AB
:1019C000204600F0DBFC2068816849061FD582684C
:1019D00040218A438260E06F002818D05F4981630C
:1019E000E06FFFF77FF9002810D0E06F816B0CE00B
:1019F0008E0616D5012720263F07064017403E4396
:101A00000FD0216F7FE00CE020468847F8BD2046CC
:101A1000FFF773FFF8BD2046FFF76FFF0020E86077
:101A2000F8BDE66E012E59D1CE0657D5C60655D55E
:101A300010221A622068816826464906403600292D
:101A40002BDAE36F196849680904090CE8D0B78BF1
:101A50008F42E5D9F18319680968890618D40168AD
:101A60001301994301602068816849084900816039
:101A7000206881684023994381602020A86000206D
:101A8000E0662068016891430160E06FFFF7F0F8BD
:101A9000B08BF18B401A81B21CE0B18BF38BC91A69
:101AA000F38B89B2002BBBD00029B9D00368FF2685
:101AB0002136B343036020688368264EF6433340E3
:101AC00083602020A8600020E0662067206803680B
:101AD000934303602046FFF7C5FEF8BDCE0208D54C
:101AE000560206D50120000518622046FFF704FFC4
:101AF000F8BD0E060BD501278026FF0506403A40AB
:101B0000164304D0616F002900D07DE7F8BD4A0676
:101B10000DD542060BD51A68204640218A431A602B
:101B2000202169600021616700F0A4F9F8BD0A0274
:101B300005D5420003D52046FFF7DDFEF8BDC901FB
:101B4000FCD50028FADA2046FFF78DFEF8BD00002C
:101B50000F080000010000102001000469230008A4
:101B600070B5040005D0254680356868002802D08D
:101B700006E0012070BD00202870204600F026F805
:101B800024206860206801684908490001602046F7
:101B900000F010FC0128EDD0A06A002802D02046F9
:101BA00000F04AFB206841680922D202914341605B
:101BB000206881682A22914381602068016801229F
:101BC00011430160204600F09DFB70BD30B587B029
:101BD000044614216846FEF710FB2368264C0021BA
:101BE00026480222A3421FD1244B40331D685403D0
:101BF00025431D601B6823400593436B13434363D8
:101C0000406B029110400590C02003910491009018
:101C1000019269461A48FFF7B5F8002211461B20C9
:101C2000FFF7E4F91B2022E0164CA34221D1C46B3C
:101C300001235B041C43C463C46B1C400594446BC8
:101C400001231C434463406B0291184005900C2013
:101C50000090039105200493019269460007FFF765
:101C600091F8002211461C20FFF7C0F91C20FFF755
:101C7000B1F907B030BD000000380140001002404B
:101C80000004005000440040FFB50746044680377A
:101C9000B86885B00E4620287CD1002E0CD007985D
:101CA000002809D00120A1680003814207D12069E2
:101CB000002804D1F00702D0012009B0F0BD387827
:101CC000012867D0012038700020F8602221B96017
:101CD000E066FFF711F90490254640350798A88380
:101CE0000798E8830121A0680903FF22884204D1F4
:101CF0002369002B0BD1284A09E0002817D00122C4
:101D00001207904218D12269002A13D03F222A8458
:101D100092B20292884202D1206900280ED0019628
:101D20000026002038700298C0B2039024E0236996
:101D3000002BECD07F22EAE70022E8E700200190A8
:101D4000EFE708980090002220212046049B00F035
:101D500039FC002801D00320AFE701980028206853
:101D600012D0416A03980140019801700198401C0B
:101D70000190E88B401EE883E88B0028E1D1202009
:101D8000B860002099E705E0406A02990840308079
:101D9000B61CEEE7022090E7FF010000FFB5064603
:101DA00004468036706883B00D46202860D1002D2F
:101DB0000CD00598002809D00120A16800038142B9
:101DC00007D12069002804D1E80702D0012007B01C
:101DD000F0BD307801284BD0012030700020F06039
:101DE00021207060FFF788F801902746403705985A
:101DF000B8820598F8820120A1680003814202D1CF
:101E00002069002804D0029500250020307015E0DC
:101E100000200290F9E700228021204600F0D2FB4A
:101E2000002818D10298002817D02168007888620D
:101E30000298401C0290F88A401EF882F88A019BA2
:101E4000002806980090E6D100224021204600F0AC
:101E5000B9FB002808D00320B9E728882168C0050D
:101E6000C00D8862AD1CE6E7202070600020AEE760
:101E70000220ACE77047FEE7F0B587B01421684652
:101E8000FEF7BBF92A48416B022529434163416BA8
:101E900029400591416B042631434163416B314038
:101EA0000591416B012421434163406B0321204094
:101EB0000590224689031F48FFF717F805200122E5
:101EC0001D490007FFF711F8A003002700900194B7
:101ED0006946039702941748FEF754FFE0036946EA
:101EE00091C1694613480397FEF74CFF0520009403
:101EF0006946000701970294FEF744FF0E486946C1
:101F000091C10520694600070397FEF73BFF0B4F81
:101F1000012204213846FEF7E8FF0194694638465D
:101F2000009603950294FEF72DFF07B0F0BD000068
:101F30000010024000080050E218000000040050A9
:101F400010B5184816490160E1214902416000219D
:101F50008160C16001618161C16101620C224162E5
:101F600042618162FFF7FCFD002801D0FEF77EFE92
:101F700000210C48FFF79CFC002801D0FEF776FEFC
:101F800000210848FFF770FC002801D0FEF76EFE24
:101F90000448FFF749FC002801D0FEF767FE10BD9A
:101FA000003801408004002010B50D480B49016045
:101FB0004B21C901416000218160C16001618161E3
:101FC000C16101620C22416242618162FFF7C8FD7A
:101FD000002801D0FEF74AFE10BD0000004400407A
:101FE00010050020FEE770B500242046B030C0B2D6
:101FF000002100F070F80021022000F06CF80021B0
:10200000102000F068F800250121002000F063F89E
:102010006D1CEDB2802DF7D3641CE4B2082CE4D320
:1020200070BD10B50446B031C8B2002100F053F8BD
:1020300020090021103000F04EF82007000F012188
:102040000843002100F047F810BD0000F7B5203A22
:10205000009800240D46D6B27F2803D900208D1C9D
:10206000EDB200902946FFF7DCFF37010D4E38191D
:10207000305C012100F02FF8641CE4B2082CF6D388
:102080006D1CE9B20098FFF7CCFF002438198019C5
:10209000007A012100F01FF8641CE4B2082CF5D38B
:1020A000FEBD0000E44E0008F8B517460E46044693
:1020B00000250CE031462046FFF7C8FF0834E4B2A3
:1020C000782C02D90024B61CF6B26D1CEDB27A5DF4
:1020D000002AEFD1F8BDF8B5012705263F033607E2
:1020E0000546002901D0012200E000223946304691
:1020F000FEF7FBFE0024002220213046FEF7F5FE0D
:10210000280601D5012200E0002280213046FEF79A
:10211000ECFE012220213046FEF7E7FE6806641C33
:10212000050EE4B2082CE6D3012239463046FEF70C
:10213000DCFEF8BD7047704710B5FEF7F5FE10BD28
:1021400030B59DB038216846FEF757F80025189540
:1021500019951A9528210EA81B95FEF74EF8012017
:102160004002FEF747FF0224E00103900094402064
:10217000059008200A9080030B90079400020C90B1
:102180000894000104950D9009956846FFF73CF905
:10219000002801D072B6FEE7072018A931C102213C
:1021A00018A81B95FFF724F8002801D072B6FEE7A7
:1021B00001200E900F950EA8FEF742FF002801D0D7
:1021C00072B6FEE71DB030BD01200249C00688602E
:1021D0007047000000ED00E0F0B513A106C985B01E
:1021E0000192009112A206CA039202910446416E26
:1021F0004034002915D000688168806809014D0FBE
:10220000400F02AE315C6F46385CC000FDF770FFD6
:102210006085785D715DC000FDF76AFF208505B0BF
:10222000F0BD01206085F9E701010103070100000D
:10223000080402040801010110B5018DC90707D087
:1022400001684A6801235B049A43C36A1A434A60DF
:10225000018D890707D501684A6801231B049A4349
:10226000036B1A434A60018D490707D501684A6824
:1022700001239B049A43436B1A434A60018D09076B
:1022800007D501684A680123DB039A43836B1A432D
:102290004A60018DC90607D50268916801231B03B6
:1022A0009943C36B19439160018D890607D5016875
:1022B0008A6801235B039A43036C1A438A60018D89
:1022C000490612D503685A6801210905446C8A43FE
:1022D00022435A60426C8A4207D102685168032344
:1022E0005B059943836C19435160018D090607D53D
:1022F00001684A680123DB04C06C9A4302434A60C8
:1023000010BD0000FEB50546002680350446EE608F
:10231000FEF7F2FD019020680068124F000709D512
:1023200001210097002249052046019B00F04AF94F
:1023300000280DD12068006840070BD501210097C7
:10234000002289052046019B00F03CF9002801D0BD
:102350000320FEBD20206860A860E6662E70002085
:10236000FEBD0000FFFFFF0110B5806A002201469C
:102370004031CA83CA82FFF7C0FA10BD01680A68FB
:10238000FF2321339A430A6001688A68084B1A4088
:102390008A60C16E012904D101680A6810239A433A
:1023A0000A60202288210A500021C1660167704717
:1023B000FEFFFFEFF8B50446036880682169E56910
:1023C00008436169002629430843616E734A01434B
:1023D0001868734D28400843186021684868032333
:1023E0001B039843E368184348602168A069914241
:1023F00001D0236A18438B686A4D2B4003438B60DE
:102400002068C16A636A090909011943C162664902
:10241000236866488B420AD140698007800F09D043
:1024200001282CD0022828D0032816D113E06049B7
:102430008B4201D1002111E093420ED1416903206A
:10244000800201400AD001208002091A17D0091A1F
:1024500013D0814201D1082100E010210120554D07
:10246000554FC00393423BD100290AD0022911D015
:10247000042909D008297DD10BE00221EEE70421CF
:10248000ECE7FEF767FF01E0FEF778FF050001D1FA
:102490007AE00546606A4000395A28460091FDF707
:1024A00027FE676879007918814269D8390381422B
:1024B00066D3002328461946009AFDF743FE020E14
:1024C00009020302780811431818002251413A46C4
:1024D0000023FDF737FE03210902411A374A4DE078
:1024E000E269824228D1002906D0022907D00429B6
:1024F00007D0082944D108E0FEF72CFF03E0284666
:1025000003E0FEF73BFF00283ED0616A4900795A9C
:10251000FDF7EEFD616840004A088018FDF7E8FD10
:1025200080B20146264A1039914229D8511C0140F7
:102530000007400F084325E0002906D0022907D0F4
:10254000042907D008291BD108E0FEF703FF03E0A8
:10255000284603E0FEF712FF002815D0616A490003
:10256000795AFDF7C5FD61684A088018FDF7C0FD7E
:1025700080B200E004E00146114A1039914201D9CD
:10258000012601E02168C8602046012140304185D4
:1025900001850020206760673046F8BD008000405C
:1025A000F369FFCFFFF4FF110038014040100240F3
:1025B000004400400024F40094580008FFFC0F0081
:1025C000EFFF0000FFB581B005460F460446803599
:1025D0000A9E38E0701C36D0FEF78EFC0499401A33
:1025E000B04221D8002E1FD02068016849072AD5A3
:1025F000C069C043000526D401202168C0020862DA
:1026000020680168FF22A13291430160206881683F
:1026100049084900816020206860A860E8600020C7
:102620002870032005B0F0BD20680168FF22A132A8
:102630009143016020688168490849008160202039
:102640006860A860EBE72068C1693846884305D018
:10265000002103988142BDD00020E3E70121F8E783
:1026600010B5034800F050F80148FFF747F910BDD6
:102670008004002010B5034800F046F80148FFF739
:102680003DF910BD100500200FB410B503AA0D4888
:10269000029900F0DDF80B48FDF7C7FD0A49CA6949
:1026A0005206FCD50022074B05E09C5C8C62CC698D
:1026B0006406FCD5521C8242F7D310BC08BC04B09F
:1026C00018470000800300200044004010B50D4969
:1026D0000A6813681020034313600B681C682022EB
:1026E00014431C6009680862064990310B681C6835
:1026F00004431C600B681C6814431C600968086272
:1027000010BD000080040020F8B5002569460D705A
:1027100000682C497D23DB0001262B4C884223D105
:102720002A4F3868C069C04380060FD40122694629
:102730003846FFF7A9FA68460178254A20781154EF
:10274000401C2070E5803968202008623868C16923
:10275000C943C90634D4E178002902D0E580E57088
:1027600000E0E680257029E01A49884228D1174FF9
:1027700090373868C069C043800612D40122694688
:102780003846FFF781FA68460178134A6078115499
:10279000401C6070A078401CA07025813968202002
:1027A00008623868C169C943C90609D4217900297A
:1027B00002D02581257100E026816570102101621B
:1027C000F8BD0000003801407400002080040020A3
:1027D0008001002000440040800200200FB410B5AA
:1027E00003A9044B044A029800F0A0F910BC08BCED
:1027F00004B018471D380008980000200FB41CB51D
:102800000A46521E0192009007A9064B6A46069896
:1028100000F08CF9009A002111701CBC08BC04B0B7
:1028200018470000653200080FB410B504A9074B23
:1028300002AA039800F07AF9044602A9002000F0E9
:102840001CFD204610BC08BC04B018477B320008B1
:1028500037B514460846064B6A46214600F066F92D
:1028600004466946002000F008FD20463EBD0000F9
:102870007B3200082021020C01D010211046020AF0
:1028800001D010460839020901D01046091F8208FC
:1028900001D01046891E420801D0881E7047081AD0
:1028A000704730B47446641E2578641CAB4200D275
:1028B0001D46635D5B00E31830BC18478307FF22A9
:1028C000DB0E9A408907090E9940002808DB83082F
:1028D00009489B001B18186890430843186070470C
:1028E0000007000F0838830804489B001B18D869AC
:1028F00090430843D861704700E400E000ED00E039
:1029000000487047A400002030B5002805D0164CC0
:10291000021F20680023014605E0084630BD9042B2
:1029200003D8034640680028F9D1002B00D059682D
:10293000002B0AD01C68D51AA54204D11268A4182D
:102940001A461C6002E05A6000E02260002807D0AE
:102950001468851AA54203D105686419146040689B
:102960005060184630BD00009C000020F1B50E4CB0
:102970000F480C4E001B0D4FC508ED0000221146FC
:10298000009801F031F8002803D13068002801D008
:102990000020F8BD3C6000202560606001203060B0
:1029A000ECE70000A0000020A40500209C0000200F
:1029B000A007002002E008C8121F08C1002AFAD1AF
:1029C00070477047002001E001C1121F002AFBD1AF
:1029D00070470000F0B51FB484B007980699020D47
:1029E000014314D04A484B491018484305140F9826
:1029F00001280E981CD0281A401C0024464E474936
:102A0000009401910290002814DA474227E00F98C1
:102A1000012443A3012808D0002104980F9A846060
:102A20000360C260416009B0F0BD0E98C143F4E795
:102A30004042E2E7074612E0F80707D02246334655
:102A400001990098FDF7D8FD019100902246334688
:102A500010461946FDF7D0FD04460E467F10002FA4
:102A6000EAD10298019B0028009A0799069802DA99
:102A7000FDF7C2FD01E0FDF727FE04460E460022E9
:102A8000284BFDF7B9FE03D80020C043014607E0FC
:102A90000022254B20463146FDF7FCFCFDF78CFE5D
:102AA000102409E0002C0ADB0A220023FDF74AFB70
:102AB000059B30321A55641E02460A43F2D1112298
:102AC000641C059B121B1C190F9B012B03D00123B7
:102AD00008430ED10AE0084304D011200E900020D4
:102AE0000F9084E70E98151A6D1E0BE00E98824227
:102AF00002DD00236D1C03E0824201DA00236D1E1B
:102B0000002BEED004980F998260C16030C08AE734
:102B100001FCFFFF104D0000000024400000F03FCA
:102B2000300000000000F0430000E03FFFB597B028
:102B30000646002518E2252877D100242746FD49BE
:102B4000049400E00443761C32780120203A90403F
:102B50000842F7D130782A280ED002223078014678
:102B60003039092916D804990A23594330394018B5
:102B70001443761C0490F1E7189802C80491189049
:102B8000002904DA01204003044348420490022053
:102B90000443761C30782E2814D104200443707826
:102BA000761C2A2809D11898761C80C8189009E04C
:102BB0000A214F43303FC719761C3078014630391F
:102BC0000929F5D930786C2810D006DC4C281AD0A9
:102BD00068280ED06A2817D104E0742813D07A2808
:102BE00012D110E00120400504430CE00121090549
:102BF00001E0032109050C437178814203D10120D2
:102C000000052418761C761C3078119066280BD0AD
:102C100013DC58287DD009DC00287BD04528F6D06D
:102C20004628F4D047281AD1A5E118E0632835D00A
:102C3000642870D0652812D19DE170286CD008DC22
:102C40006728F1D069287BD06E280DD06F2806D177
:102C5000BAE073282ED0752871D0782859D01A9AE6
:102C6000199990476D1C7EE16002400F022809D03F
:102C700003280DD00428189801680DD00D60001DA0
:102C8000189070E11898EA1701680D604A60F6E73D
:102C9000189801680D80F2E70D70F0E718986A4601
:102CA00001781172001D18900020507202A8009047
:102CB000012005E0189802C8189000200091C04338
:102CC00061070DD5002101E00199491C0191B9422C
:102CD00012DA8142F8DB009A515C0029F4D10BE052
:102CE000002101E00199491C01918142FADB019A1E
:102CF0000099895C0029F5D1019904981A9B471A1B
:102D000021463846199A00F097FA0199401945185A
:102D10000BE04FE02CE113E04EE0009800990078C2
:102D2000491C00911A9A199990470198401E0190E8
:102D3000401CF2D1214638461A9B199A10E137E01F
:102D40000A200021009001916002410F022907D062
:102D5000189A01CA1892C2179446032908D00AE0AB
:102D60001898C01DC108C90005C91891944607E00C
:102D700000B2C2179446042902D140B2C1178C4652
:102D800000226146944506DA0A46002140429141FC
:102D90008C462D2102E0210504D52B216A461173B2
:102DA000012103E0E10701D02021F7E7029155E07E
:102DB0000A200AE0102008E01020009000210420E2
:102DC00004430191082703E00820002101910090AD
:102DD0006002410F022907D0189A01CA18920022F6
:102DE0009446032908D008E01898C01DC108C900FE
:102DF00005C91891944603E080B2042900D1C0B2FD
:102E000000210291210729D51199702906D0009A35
:102E10001021019B4A401A4305D00EE040216A462A
:102E20001173012108E06146014306D030216A4652
:102E300011731199517302210291009A0821019B8B
:102E40004A401A430AD16146014301D1610705D5C1
:102E500030216A46117301217F1E02911199582970
:102E600004D035A10E910DA90D910DE037A1F9E720
:102E70006146019B009AFDF765F90E9B8C469B5CB1
:102E80000D9A521E0D92137061460143F0D10D98B8
:102E900005A9081A20300190600703D5012000041D
:102EA000844300E001270198874201DD381A00E0E1
:102EB0000020019900904118029809180498401ABE
:102EC0000490E00306D421461A9B199A049800F056
:102ED000B3F94519002706E003A81A9AC05D1999AD
:102EE00090476D1C7F1C02988742F5DBE0030CD5F0
:102EF00021461A9B199A049800F09EF9451904E09E
:102F00001A9A3020199990476D1C0099481E00901C
:102F10000029F5DC08E00D980D990078491C0D9109
:102F20001A9A199990476D1C0199481E0190002921
:102F3000F1DC63E1092801003031323334353637B2
:102F400038396162636465660000000030313233F5
:102F50003435363738394142434445460000000095
:102F600000F05AF94519761C3078002800D0E2E5C7
:102F700028461BB0F0BD600700D406271898C01D76
:102F8000C108C90048680A680831C30FDB071891F7
:102F9000190001D09CA108E0210501D59BA104E006
:102FA000E10701D09AA100E09AA1430011985B08C3
:102FB000109165280CD006DC452809D046281DD084
:102FC000472841D141E0662818D067283CD13CE031
:102FD0000021112F01DB112000E0781C01910090ED
:102FE00008A911A8FFF7F6FC139905910021119A81
:102FF00015927F1C12980197009150E00120C007A4
:1030000003900120019008A9009711A8FFF7E2FCA6
:10301000139A149905920022119B0092129815930D
:10302000059A0192002901D0104602E0791C40184F
:103030000190381A01D5019804E04042401E0090EA
:10304000781C0190C01B029043E0012F00DA012799
:103050000021112F01DD112000E038460191009080
:1030600008A911A8FFF7B6FC13990591119A002140
:10307000129815920091019721070CD40599B94235
:1030800001DB019900E00191012904DD159A491E37
:10309000515C302906D0B84201DA011D05DA012160
:1030A000029115E00199491EEDE7002805DC009921
:1030B000411800910199091A03E0019A411C9142BB
:1030C00000DD01910099401A401C02900120C007C8
:1030D0000390200706D402990198814202DB002068
:1030E000C043029000206946C87707AF01210398CA
:1030F0000337C907884224D0022011902B20129058
:10310000039800280CDA404203902D20129007E02B
:103110000A210398FCF7ECFF30317F1E03903970D1
:103120001199481E11900029F2DC03980028EFD174
:10313000791E129808703078202108404530BF1E53
:10314000387006A8C01BC01D039010980078002896
:1031500000D00120019941180298C017091803985E
:1031600009180498401A401E0490E00306D4214632
:103170001A9B199A049800F05FF845191098007886
:10318000002803D01A9A199990476D1CE00324D5A2
:1031900021461A9B199A049800F04EF845191CE034
:1031A0000098002807DB00990598884203DD1598F0
:1031B000405C199901E0199930201A9A90470098BB
:1031C0006D1C401C00900298401E0290002804D103
:1031D0001A9A2E20199990476D1C0199481E01904A
:1031E0000029DDDC05E038781A9A7F1C1999904790
:1031F0006D1C0399481E03900029F4DC21461A9B9C
:10320000199A0498ACE600002D0000002B00000085
:103210002000000000000000F8B5044600251E460E
:103220001746880404D405E039462020B0476D1CB9
:10323000641EF9D52846F8BDFFB50446002581B0C7
:103240001E46C80301D5302700E02027880404D596
:1032500005E038460399B0476D1C641EF9D5284631
:1032600005B0F0BD4A68002A06D00A68531C0B60FE
:1032700010704868401E486070470A68531C0B6015
:1032800010707047FFB581B00F460546FDF734FE5C
:1032900006463848364C0268002120682BE00B01B6
:1032A000C35CAB4226D10D0128180A23C35E027A03
:1032B0000B990A9800F0C0FB002816D02068281847
:1032C0004770216803986918887021680498691804
:1032D000C87021680A986918087221680B986918E3
:1032E000488121680C9869188881206828184660F0
:1032F00005B0F0BD491C9142D1DB1F4B19688A42D1
:1033000005DB891C1960090101F0EEF920601948FC
:1033100001680A0121688D540268120151184F702A
:103320000268236812010399D21891700268236819
:1033300012010499D218D170016822680901891814
:103340004E600268236812010A99D218117202684D
:10335000236812010B99D218518102682368120167
:103360000C99D21891810168491C0160C0E70000E6
:1033700018000020540000201C000020F8B5D6B230
:10338000002401250300FFF78CFA065F04121F2CAE
:10339000555F364B3648002905D0521E1D70022A53
:1033A00003D806705FE01C7042E005705BE07D2092
:1033B000C000304A814201DA014602E0914200DD5C
:1033C00011462D4801604EE0002901D0012000E0A7
:1033D00000202A49002A087001D0012A43D1284838
:1033E000DFE728490A78FF2A2ED0274F274E3C6076
:1033F0003068002811D0264B1B68002B0DDD0270B1
:1034000009784170FF218170C170FDF775FD316849
:1034100048600C724C818C813D601E48007801F040
:10342000EFFAFDF769FD1C4908601C4805701C484F
:10343000047018E01B481C4B002901DC047006E0F6
:10344000012903D0022904D00020F8BD05701C70AA
:1034500009E002210170002A01DA002202E0642A58
:1034600000DD64221A700120F8BD00004B0000202E
:103470004A000020C0270900140000204C00002052
:103480004D000020080000205400002018000020FB
:103490001C00002009000020240000200B00002058
:1034A0000C0000204F0000205000002010B5040048
:1034B0001CD014A1FCF7C0FE002819D013A120468F
:1034C000FCF7BAFE002815D012A12046FCF7B4FE86
:1034D000002811D011A12046FCF7AEFE00280DD027
:1034E00010A12046FCF7A8FE002809D0002010BD3E
:1034F000012010BD022010BD032010BD042010BD0E
:10350000052010BD4D4F444500000000524F554E60
:10351000440000004F4E4F4646000000524F5554A5
:103520004500000044524F500000000000B5030069
:10353000FFF7B7F9060E0406080A0C0E05A000BD39
:1035400006A000BD07A000BD08A000BD09A000BDE9
:103550000AA000BD4D4F444500000000524F554E9B
:10356000440000004F4E4F4646000000524F555455
:103570004500000044524F5000000000554E4B00E3
:103580000748FF21C17001710121417161218171E1
:103590002021C17109210172D021417270470000C0
:1035A00034000020F8B50020694608700446FFF793
:1035B000E7FF05252D07002240212846FDF795FC51
:1035C000012202212846FDF790FC3220FDF7C8FBBE
:1035D000FF26144D2D360C211248FCF70EFE0A2151
:1035E0001148FDF77DFA3046FDF7BAFB69460D48F4
:1035F00000F066F8684600780A2808D32878C128C1
:1036000005D16878002802D1A878072808D0322090
:10361000FDF7A6FB641CE4B2032CDCD30020F8BD4C
:103620000120F8BD3E00002034000020F8B505243C
:103630002407002240212046FDF757FC01220221E9
:103640002046FDF752FCFF242D342046FDF788FB71
:1036500001251A4EED03002229463046FDF745FCB0
:103660006F10002239463046FDF73FFC2046FDF73B
:1036700077FB012229463046FDF737FC0122394607
:103680003046FDF732FC2046FDF76AFB0022294652
:103690003046FDF72AFC002239463046FDF725FC6E
:1036A0002046FDF75DFB012229463046FDF71DFC53
:1036B000012239463046FDF718FCF8BD00080050DD
:1036C00070B50B4C0022A5780A4B0A701E78C12EEB
:1036D00004D007E09E5C8654521CD2B2AA42F9D3B1
:1036E000A0780870FF2101310248FCF786FD70BD0B
:1036F000740000208002002010B5FCF753FD642107
:10370000FCF70CFDC9B20848084C1E2908D201215B
:103710000170FCF747FD0321FCF700FD491C01E0A7
:1037200000210170217010BD4B0000204A000020D4
:10373000F0B50A490A4B07E01C6802011219144649
:103740001034F0CCF0C2401C0A68521E9042F3DBE9
:103750000868002801DD401E0860F0BD540000200C
:1037600018000020FF218172C172017341738173BF
:103770008175C1750176417681767047F1B5FDF7A7
:10378000BBFB05460024154E154F20E03068154B55
:103790002101425C1B7894469E46724509D00A1866
:1037A0005268AB1A104A934203D9E0B2FFF7C0FF48
:1037B0000DE0009B9C4509D108184178714505D062
:1037C00031682001401845602046F8BD641C386807
:1037D0008442DBDB0020C043F8BD0000180000205D
:1037E000540000200800002020BF020010B5094945
:1037F00003460A6808490020096806E00C2444438F
:10380000A41824799C4204D0401C8842F6DB002096
:10381000C04310BD580000206000002013B5044BC9
:10382000012269460348FEF7B9FA00981CBD000062
:10383000FFFF00008004002010B5FDF763FB044685
:10384000FDF766FB4440FDF769FB604010BD0000DA
:103850003EB505252D07002440212846FDF740FBF5
:10386000002827D102212846FDF73AFB002821D164
:1038700011A103C90190002002910090062101A826
:10388000FDF72EF9FF20F530FDF76AFA0C4968467E
:10389000FFF716FF6846C478FF200130011B09A01E
:1038A000FEF79CFF0F496846C0780978091A0EA0F8
:1038B000FEF794FF20463EBDC0C1C2C30001000018
:1038C000510000200D0A63757272656E7443686161
:1038D0006E6E656C4E6F6973653A202D2564644287
:1038E0006D0D0A000D0000200D0A63757272656E81
:1038F000744368616E6E656C534E523A2025646461
:10390000420D0A0010B5417A10290BD00BDC0129B9
:1039100017D0022918D0032919D0042902D110493F
:103920000020087010BD112908D0202912D02129AB
:1039300013D02229F6D100F087FE10BD00F026FD3D
:1039400010BD00F029FE10BD00F0D2FD10BD00F04A
:10395000BFFB10BD00F05CFB10BD00F02BFB10BDE9
:103960006500002010B50020064A0146FF24C30070
:10397000D4549B1859709970401C59600828F6DB84
:1039800010BD00000001002010B5FFF755FF0649EB
:103990000346086005A209210648FEF72FFF0549E6
:1039A00005A0FEF71BFF10BD680000202530386C15
:1039B000580000007301002044657669636555492D
:1039C000443D25730D0A000010B50020054902464C
:1039D000FF24C300CC545B185A70401C5A6008285E
:1039E000F7DB10BDC0000020F8B50B30C608F600AC
:1039F000104D19E02068B04215D3B0420BD963686E
:103A0000871B201D0093FCF7DFFBA019009B0760BC
:103A10004360286004E060682860201DFCF7D4FB48
:103A2000201D2660F8BD251D2C68002CE2D1002049
:103A3000F8BD00009C000020904203D3904203D8C0
:103A4000994201DD0120704700207047F8B5164605
:103A50000D460446FDF750FA0146174B0020C20000
:103A60009F5CA74210D1D7187A78AA420CD1BA78B5
:103A7000B24209D17A688F1A104A974204D2C00024
:103A8000C01841600120F8BD401C0828E7DB002079
:103A9000C2009A5CFF2A07D0401C0828F8DB1C7083
:103AA0005D709E70596005E0C0001C54C0184570E0
:103AB000867041600020F8BD00010020204E00000B
:103AC000F8B50D460446FDF717FA154F154A0023C1
:103AD000D900565CA6420CD189184E78AE4208D166
:103AE0004968411AB94204D2D900891848600120B6
:103AF000F8BD5B1C082BEBDB0021CB00D35CFF2B5C
:103B000006D0491C0829F8DB14705570506004E099
:103B1000C900545489184D7048600020F8BD000059
:103B2000204E0000C000002092B0FDF705FAFEF71D
:103B300007FBFEF7A1F9FEF703FAFEF735FAFEF7E9
:103B4000C5FDFFF721FFB44CB4A062782178FEF7E1
:103B500045FE00F01BFE022060612020FEF706FFFC
:103B60002061FFF731FFFFF7FDFEB5A0FEF736FE3F
:103B7000FCF7EAFEFEF737FAB6A200211020FEF7A6
:103B800093FA01F061F9FFF751FDFFF7F9FCFFF738
:103B900009FDA070B2A202210020FEF785FA264698
:103BA0000325363627462C37A078002801D0725DD1
:103BB00000E07A5DACA1AE48FEF736FE2801001F9A
:103BC000C0B2AB4A0221FEF76FFA6D1C052DEBDB8C
:103BD000A8A202215220FEF767FAA078002801D09F
:103BE000327A00E03A7AA0A1A148FEF71DFEA04A71
:103BF00002216820FEF758FAA078002801D09EA282
:103C000000E09FA204210020FEF74EFA05252D07B3
:103C1000002202212846FDF768F9002240212846AB
:103C2000FDF763F9FF202D30FDF79AF8FF260136E6
:103C300031469548FCF7E1FA944F00253D80314626
:103C40009348FCF7DAFA934E35802078FF2807D0A6
:103C5000FF23009501951A4601460295FFF712FBD6
:103C6000FDF74AF907462078FF280CD1206A8A4AD6
:103C7000391A914201D8002844D1276200F04EFE43
:103C80002078FF283ED0A069E268391A914201D21B
:103C9000002804D1A76101F0F1F800F0DBFE606AB2
:103CA0007E49381A884202D3676200F0F7FCA06AA6
:103CB0007B4A391A914201D2002802D1A76200F052
:103CC000A7FFA07900280ED06078FFF757FD401CB1
:103CD00003D120786178884205D1E079217A627A2F
:103CE000A57100F085FDE07801280BD1207900282E
:103CF00008D1E0696B49381A884203D9607800F02E
:103D00007FFEE761614F3888012875D1FF20694641
:103D100008744874092088745B480278CA74427831
:103D20000A7582784A75C2788A750279CA754279AD
:103D30000A7682794A76C0798876534906A8033094
:103D4000282208310090FCF73FFA2821009800F063
:103D500005FD6946497E102901D011290CD168461C
:103D6000837E027EC07D0090029301926846837D2F
:103D7000427D4DA0FEF732FD434940200A5C002AF7
:103D800001D0627101E0401EF8D56179FF20013059
:103D9000411A6846827E037EC07D009001930292A4
:103DA00003916846837D427D417E4C48FEF716FDB7
:103DB0006179FF200130411A49A0FEF70FFD6846E6
:103DC000C17D207881420BD0FF2909D06946097E48
:103DD000814205D0FF2806D16846407E112802D1D5
:103DE00004A8FFF78FFD04A800F0A4FFFF21013114
:103DF0002548FCF702FA3D803088012800D02FE7E3
:103E0000234940A0FEF740FCFF2101312048FCF788
:103E1000F4F9358024E7000008000020524F4C459B
:103E20003D4D454D424552206E6F646549443D25E8
:103E3000752074617267657449443D25750D0A00EB
:103E40004C4F524120426F617264204C4544204FD8
:103E50004B0D0A005757534E204E4F44450000006B
:103E6000416464723A0000002530325800000000BE
:103E7000A800002043683A00434647204F4B00000B
:103E80004346472045525200800200207C0000201B
:103E9000800100207A00002070170000983A00008E
:103EA0003075000010270000504B545F52582070AE
:103EB000726F746F3D2575207372633D25752066A2
:103EC00077643D257520746F3D2575206473743DBE
:103ED000257520706B743D25750D0A0094590008F6
:103EE00072656365697665645061636B6574576973
:103EF0007468525353493A202D256464426D0D0A6B
:103F00000000000025730A00F0B50E468DB00021B8
:103F1000129F1C4615460B91002818D0002E16D073
:103F2000002D14D0002C12D0002F10D001462822D2
:103F30006846FCF76DF9002008A908721CA16846C4
:103F4000FCF798F9002802D00078432802D000201E
:103F50000DB0F0BD16A10020FCF78CF90028F7D0B9
:103F60000A220BA9FCF7E2F9307011A10020FCF73E
:103F700081F90028ECD0FFF799FA28700028E7D0E3
:103F80000BA10020FCF776F90028E1D00A220BA94A
:103F9000FCF794F9206006A10020FCF76BF90028DB
:103FA000D6D00A220BA9FCF789F938600120CFE7A7
:103FB0002C00000070B5134D0446C0792978884262
:103FC0001FD11148217A007881421AD1FFF7D6FB20
:103FD000411C16D0FF21217061700922A270E1708E
:103FE00021712978A17109490001096840184078B8
:103FF000E071204628210B3000F0BCFB204600F089
:1040000073FC70BD0800002009000020180000208B
:10401000F0B593B00446002508A8057505742A4F2D
:104020000E950F953978FF2924D0207A26460B3635
:10403000884221D0FF281FD0E2798A421AD1FFF7A7
:104040009DFB0146401C15D0FF20207060700922A6
:10405000A270E07020713878A07108011B490968CE
:1040600040184078E0712821304600F083FB20465C
:1040700000F03AFC13B0F0BD2822314601A8FCF74D
:10408000A3F808A805730FA800900EAB0CAA0DA901
:1040900001A8FFF739FF0028ECD008A90A7C607955
:1040A000097DFFF7D3FC002801D0012206E008A813
:1040B000007C0F9A0E99FFF761F9024608A8017C6F
:1040C000007D00F095FBD5E70800002018000020D7
:1040D000F0B56C4D0446287887B0FF284DD0E07AC3
:1040E000A37B627B217B02AD0FC5A17A207A009071
:1040F0000191E379A27961796348FEF76FFB61482A
:10410000217A007881423AD16279A17A5FA0FEF7E4
:1041100065FB18216648FCF770F8A17B607B019174
:104120000090237BE27A63A16148FEF77DFB604A41
:1041300006210020FDF7B8FF2279E178A07900F090
:1041400031FBFFF785FBE079A37A627A217A01AD32
:104150000FC5A079009063792279E1785AA0FEF723
:104160003DFB00256019C17A62A0FEF737FB6D1C8C
:10417000282DF7DB4DA0FEF731FB07B0F0BD22790B
:10418000E178A07900F00EFBFFF762FBC6B25B4856
:1041900000780128F1D0022808D1FCF703F8642147
:1041A000FBF7BCFF564800788142E6DB55480178B2
:1041B00020460B30009000291CD05348007800287E
:1041C00003D052480078002814D0514D2878012897
:1041D000D3D0032806D1FBF7E5FF6421FBF79EFF50
:1041E0001E29CADB2878022801D0032802D10098B2
:1041F000FFF7B8FA474D2878FFF7C0FA411C2ED0D8
:1042000007014548A17A00682B783818427843A006
:10421000FEF7E4FAFF20207060700921A170E070C1
:104220002071184801783C48A1710068381840781E
:10423000E0711C202218D27A002A09D0C01CF9D5BE
:104240002821009800F096FA204600F04DFB94E7F4
:104250002018C1723D49097801734673F0E7A17ACD
:104260002A783BA0FEF7BAFA287800F0C9FBFCF7E1
:1042700043FE434908604349012008704249002039
:1042800008707AE708000020D85900084D454D42D3
:1042900045525F444154415F4C4F43414C20706B49
:1042A000743D25752066726F6D3D25750D0A000001
:1042B000A8000020543A25642E25644320483A255E
:1042C000642E2564520000002530325820253032FB
:1042D0005820253032582025303258202530325889
:1042E00020253032582025303258202530325820B1
:1042F0000000000025303258200000004F00002050
:10430000500000204B0000204C0000204D000020F9
:104310004A00002009000020180000204D454D42B1
:1043200045525F444154415F46574420706B743D91
:104330002575206E657874486F703D257520746111
:10434000726765743D25750D0A0000000D000020A0
:104350004D454D4245525F444154415F4E4F524F8F
:1043600055544520706B743D2575207265717565D7
:104370007374526F757465546F3D25750D0A000096
:10438000240000200B0000200C00002070B52B4EF4
:104390000546307888B0FF284AD1294608220B31DB
:1043A00003A8FBF711FF002468460475AB7A244A82
:1043B00003A924A0FEF712FA2A7DE97C2BA0FEF7C0
:1043C0000DFA08221E4903A8FBF744FF002801D07C
:1043D0002EA030E0E97C68460176297D417684761E
:1043E0001022002106A8FBF7A1FFC1B2FF2921D0AE
:1043F00031702EA0FEF7F2F9009401940294317806
:10440000FF231A460846FEF73DFF00F01DFD00F0B1
:10441000BDF9FFF771F92A48007800F0F1FAFCF7CE
:104420006BFD28490860284901200870274804705E
:1044300008B070BD26A0FEF7D1F9F9E7080000200A
:10444000730100204A4F494E5F41535349474E5F25
:104450005258207569643D25732073656C663D254F
:104460007320706B743D25750D0A00004A4F494E4C
:104470005F41535349474E5F49445F52415720259E
:1044800030325820253032580D0A00004A4F494E2C
:104490005F41535349474E5F534B49502075696400
:1044A000206D69736D617463680D0A004A4F494E4F
:1044B0005F4F4B206E6F646549443D25750D0A00C2
:1044C00009000020240000200B0000200C00002028
:1044D0004A4F494E5F41535349474E5F534B4950F2
:1044E00020696E76616C69642069640D0A000000C1
:1044F000FEB5244E0025317804462846FF291AD0FF
:10450000E17A002901D0491EC8B21F490027097865
:104510006A46FF39013983C22379E278A17960794B
:10452000FEF7B0FE207A3178884205D11749012084
:10453000087017480770FEBDFFF720F9411CFAD03C
:10454000E17A002903D0491ECDB2082DF3D2FF2114
:10455000217061700922A270E17021713178A1711E
:104560000C4900010968AD1C40184078E0712046F4
:10457000E57228210B3000F0FDF8204600F0B4F978
:10458000FEBD0000080000200D0000200C000020EF
:104590000B00002018000020FEB5294E044600251F
:1045A00030782F46FF282DD0A17A6079FFF788FA5E
:1045B000002827D1E07A002801D0401EC7B26079D8
:1045C000317888420CD01F49002209780097FF39C2
:1045D0000139029201912379E278A179FEF752FE26
:1045E000207A3178884204D163790146A27918464D
:1045F00006E0FFF7C3F8401C05D0A279217A607964
:1046000000F0D4F9FEBDE07A002803D0401EC5B208
:10461000082DF7D2FF20207060700921A170E07092
:1046200020713178A171E071AD1C2046E57228211E
:104630000B3000F09FF8204600F056F9FEBD000058
:10464000080000200D00002070B5124D04462978A6
:10465000FF291DD0207A88421AD0FFF78FF8411C1D
:1046600016D0FF21217061700922A270E1702171C2
:104670002978A17108490001096840184078E07163
:10468000204628210B3000F075F8204600F02CF968
:1046900070BD00000800002018000020F8B5FCF7ED
:1046A0002BFC054600240C4E0C4F11E031680C4ADF
:1046B00020010B5C1278934209D040184068291AF7
:1046C0000848814203D9E0B2FFF732F800E0641CE9
:1046D00038688442EADBF8BD18000020540000204E
:1046E0000800002020BF0200F3B583B005001AD0F7
:1046F00028680190284680380290C76F04983E1FB2
:10470000864200D906462846FEF7FEF80446009188
:10471000324629460498FFF767F90199002806D028
:10472000016005B0F0BD0498FEF720F9F9E72960B3
:104730000299002CCF670AD021686218291F8A428B
:1047400002D9291B091F216000996160E9E7024A2B
:1047500000991160E5E700009C00002010B50022E0
:10476000134604E0845CFF2C00D18354521C8A421F
:10477000F8D310BD10B50022FF2304E0845C002CA8
:1047800000D18354521C8A42F8D310BD10B5FCF7F7
:10479000B3FB034909684840FBF70DFD10BD00005D
:1047A0006800002030B5104D8DB02C786B469C729F
:1047B000641C2C7019705A7009219970FF21D970EE
:1047C00019710A49FF22097859719971D8711872C3
:1047D00004205872184628210B30FBF707FD684665
:1047E00000F082F80DB030BD660000200800002007
:1047F000F7B52E4C074620789CB01646FF2845D0CA
:104800001D98FEF793FE2178029100903B4628A266
:104810000196292110A8FDF7F1FF294A6846117871
:104820008175491C1170FF21017341730922827344
:10483000C173017421784174224D81742978017506
:10484000212242750846FEF799FF411C05D01E49FA
:1048500000010968401840781BE0217828788142DF
:1048600016D01A4901240C7019491A4A0F701D9963
:10487000117019490E7000F0C3F8FCF73DFB1749A1
:104880000860174817490470002008701FB0F0BD79
:10489000FF206946C87405A810AA2821033000F03B
:1048A0000BFB03A800F020F8F0E700000800002050
:1048B000412C25752C25732C25752C2575000000A1
:1048C0006600002009000020180000200E000020D3
:1048D0000F00002010000020110000202400002004
:1048E0000B0000200C00002010B5014633220948BF
:1048F000FBF76AFC074A08490020CB695B06FCD538
:10490000135C8B62401C80B23328F6D3C869400622
:10491000FCD510BD400100200044004070B518488F
:104920008EB00078FF2828D1164968460D78857228
:10493000681C0870FF246846047044700921817067
:10494000C470047144718471C47101210172102119
:1049500041720B30224628210646FBF747FC08220D
:1049600009493046FBF730FC2B462246064907A092
:10497000FDF734FF6846FFF7B7FF0EB070BD0000CB
:104980000800002066000020730100204A4F494EB5
:104990005F524551207569643D25732069643D254A
:1049A0007520706B743D25750D0A000030B5124DF1
:1049B0008DB02C786B469C72641C2C70FF241C708C
:1049C0005C7009259D70DC701C7159710B49097868
:1049D0009971DA71187202205872184622462821FD
:1049E0000B30FBF703FC01206B46D8726846FFF7DB
:1049F0007BFF0DB030BD00006600002008000020E5
:104A000010B512498EB00B78FF2B1CD0104C6946A4
:104A100022788A72521C2270FF220A704A7009247E
:104A20008C70CA700A714B718B71CA710872012443
:104A30004C7202A828210330FBF7D8FB6946CC72E0
:104A40006846FFF751FF0EB010BD000008000020BF
:104A500066000020F0B5524891B00078FF2808D0D9
:104A6000FCF7C2F8012806D04EA206210020FDF76F
:104A70001BFB11B0F0BD342103A8FBF7BEFB4E4871
:104A800069468778CF75C4780C7605784D76467878
:104A90008E7618214948FBF7B0FB3B466F4670C73E
:104AA00047A218214548FDF7A9FE4AA20621002089
:104AB000FDF7FAFA414A06210020FDF7F5FA4A48C7
:104AC0000668002E22DD494D314628780446FBF762
:104AD00025FB0C20414346480C22076806A8C9194B
:104AE0000330FBF771FB641CE4B22C70012E0DDD6A
:104AF00031462046FBF712FB0C204143024609A831
:104B0000C9190330FBF760FB641C2C70394E3078F8
:104B1000FEF734FE0446401C0027374D002828D0FD
:104B20003648210100680A18917868460173D178E7
:104B3000417309218173FF21C17301741848017801
:104B40006846417481745178C17431782C4A01757A
:104B500011788175491C1170032141752821173086
:104B6000FFF708FE03A8FFF7BFFE2878401C287057
:104B70000BE03078FFF744FFFCF7BEF921490860ED
:104B8000214901200870214807702878052800D2A3
:104B90006FE7601CFCD0E0B2FEF7CAFD2F7068E73B
:104BA00008000020444854205245414420455252B8
:104BB000202020200000000000000020A80000208D
:104BC000543A25642E25644320483A25642E2564F2
:104BD0005200000020202020202020202020202003
:104BE0002020202000000000600000206400002041
:104BF0005800002009000020650000201800002057
:104C000066000020240000200B0000200C00002083
:104C1000F0B52E489FB00178FF291AD02D4F2E4DA8
:104C20003F782E4CBC462A482D4B2F782E4A2578AB
:104C300006781C7813782B482C4A00781268B14209
:104C4000664608D1049603976E4631C628A0FDF744
:104C5000C5FD1FB0F0BD0696059702AE31C60193A3
:104C600000920B46194C2AA2292114A8FDF7C6FD73
:104C70002E4A08A910788871401C1070FF206946E0
:104C80000877487709228A77C87708A908702078BA
:104C9000487088700E482222007808714A71FEF729
:104CA0006DFD411C05D0224900010968401840787B
:104CB00000E0FF2008A9C87009A814AA2821033021
:104CC00000F0FAF807A8FFF70FFEC2E7080000207F
:104CD00009000020500000204F0000204A00002062
:104CE0004B0000204D0000204C000020140000204C
:104CF000535441542C25752C256C752C25752C2569
:104D0000752C25752C25752C25752C25750D0A00FF
:104D1000532C25752C256C752C25752C25752C256B
:104D2000752C25752C25752C257500006600002036
:104D300018000020F8B50646407A10285DD01128EA
:104D40005BD0202859D0212857D0222855D0394F60
:104D500039483A680168394D8A4207DB491C0160CD
:104D60000C2041432868FFF7BFFC2860B079FEF7AC
:104D70003DFD0446401C28D13C68FCF7BDF80246C6
:104D800020460C21484329680A50B27941180A711B
:104D90002B492A680978821851712A6800218218E3
:104DA00091712A688218D1712A68821811722A6852
:104DB000821851722A688218917222492A680978E9
:104DC0008018C1723868401C3860FCF795F80C21D7
:104DD0004C43296808511B4861180078C872707AE2
:104DE00001280BD002280FD0032813D0042804D1A7
:104DF00028682118087A401C0872F8BD2868211814
:104E0000487A401C4872F8BD28682118887A401CEE
:104E10008872F8BD7079B1798842286804D1201869
:104E2000C179491CC171F8BD21188879401C88716D
:104E3000F8BD0000600000205C0000205800002049
:104E4000080000200D00002010B508A200216420F9
:104E5000FDF72AF9064807A102780748FDF7E4FCA8
:104E6000054A00216420FDF71FF910BD2020200015
:104E700008000020256400006C00002010B50B48DD
:104E8000007800280FD00A490878401CC0B208708A
:104E90000521FBF72DF9042905D1064801780029E1
:104EA00002D00021017010BD0121FBE74C00002061
:104EB0004E0000204D000020F8B507460D4616466E
:104EC0001046FBF7B2F90446A84200D92C46FF224F
:104ED00029463846FBF78AF9224631463846FBF721
:104EE00073F9F8BD000000000000000000000000A1
:104EF00000000000000000F8000000000000003387
:104F00003000000000100C06100C0600000000002D
:104F10000000000040C07840C0784000043F040416
:104F20003F040400007088FC08300000001820FFD7
:104F3000211E0000F008F000E018000000211C0312
:104F40001E211E0000F00888700000001E2123248E
:104F50001927211010160E000000000000000000AC
:104F600000000000000000E018040200000000073C
:104F70001820400000020418E00000000040201843
:104F800007000000404080F0804040000202010F16
:104F900001020200000000F0000000000101011FFA
:104FA00001010100000000000000000080B070005E
:104FB00000000000000000000000000000010101EE
:104FC000010101010000000000000000003030007D
:104FD0000000000000000000806018040060180657
:104FE0000100000000E010080810E000000F102091
:104FF00020100F00001010F8000000000020203FDB
:105000002020000000700808088870000030282464
:105010002221300000300888884830000018202005
:1050200020110E000000C02010F80000000704242A
:10503000243F240000F8088888080800001921206F
:1050400020110E0000E0108888180000000F1120C9
:1050500020110E0000380808C83808000000003F82
:10506000000000000070880808887000001C2221E1
:1050700021221C0000E010080810E000000031228E
:1050800022110F00000000C0C0000000000000302E
:105090003000000000000080000000000000806080
:1050A0000000000000008040201008000001020401
:1050B00008102000404040404040400004040404E8
:1050C00004040400000810204080000000201008A4
:1050D00004020100007048080808F00000000030D9
:1050E00036010000C030C828E810E0000718272467
:1050F00023140B000000C038E0000000203C230215
:105100000227382008F8888888700000203F202077
:1051100020110E00C03008080808380007182020A9
:105120002010080008F808080810E000203F2020A0
:1051300020100F0008F88888E8081000203F202081
:105140002320180008F88888E8081000203F200075
:1051500003000000C03008080838000007182020AD
:10516000221E020008F808000008F808203F21016C
:1051700001213F20000808F8080800000020203F17
:105180002020000000000808F8080800C080808087
:105190007F00000008F888C028180800203F200180
:1051A0002638200008F8080000000000203F2020DA
:1051B0002020300008F8F800F8F80800203F003FF1
:1051C000003F200008F830C00008F808203F200009
:1051D00007183F00E01008080810E0000F1020201A
:1051E00020100F0008F808080808F000203F2101EF
:1051F00001010000E01008080810E0000F18242446
:1052000038504F0008F8888888887000203F2000B8
:10521000030C30200070880808083800003820216E
:1052200021221C00180808F8080818000000203F78
:105230002000000008F808000008F808001F2020DF
:1052400020201F000878880000C8380800000738B0
:105250000E010000F80800F80008F800033C070001
:10526000073C0300081868808068180820302C0369
:10527000032C30200838C800C83808000000203F40
:105280002000000010080808C8380800203826212F
:1052900020201800000000FE020202000000007F33
:1052A00040404000000C30C0000000000000000141
:1052B0000638C00000020202FE000000004040402C
:1052C0007F00000000000402020204000000000051
:1052D00000000000000000000000000080808080CE
:1052E00080808080000202040000000000000000B6
:1052F000000000000000808080800000001924224F
:1053000022223F2008F8008080000000003F11208A
:1053100020110E000000008080800000000E11208F
:1053200020201100000000808088F800000E11206D
:1053300020103F200000808080800000001F22227B
:1053400022221300008080F0888888180020203FE7
:10535000202000000000808080808000006B9494FA
:105360009493600008F8008080800000203F2100B6
:1053700000203F2000809898000000000020203F7F
:1053800020200000000000809898000000C080806D
:10539000807F000008F8000080808000203F240209
:1053A0002D302000000808F8000000000020203FF9
:1053B000202000008080808080808000203F2000AE
:1053C0003F20003F8080008080800000203F21003F
:1053D00000203F200000808080800000001F2020EF
:1053E00020201F00808000808000000080FFA1201E
:1053F00020110E000000008080808000000E11202F
:1054000020A0FF80808080008080800020203F21BD
:105410002000010000008080808080000033242470
:1054200024241900008080E0808000000000001F1C
:10543000202000008080000000808000001F2020CD
:1054400020103F20808080000080808000010E308E
:105450000806010080800080008080800F300C03EF
:105460000C300F0000808000808080000020312EF2
:105470000E312000808080000080808080818E70CE
:105480001806010000808080808080000021302C80
:105490002221300000000000807C02020000000099
:1054A000003F404000000000FF000000000000003E
:1054B000FF0000000002027C800000000040403F2E
:1054C00000000000000601010202040400000000C8
:1054D000000000001060028C0000FE9292929292F6
:1054E000FE000000000000000000000000000000BE
:1054F0000000000004047E01407E42427E427E4263
:10550000427E40000000000000000000000000009B
:10551000000000001060028C00FE92929292929223
:10552000FE0000000000000000000000000000007D
:105530000000000004047E014448507F40407F503A
:10554000484440000000000000000000000000008F
:10555000000000000000FC242424FC252624FC2458
:1055600024240400000000000000000000000000EF
:105570000000000040308F80844C55252525554C77
:10558000808080000000000000000000000000009B
:10559000000000004020D04C4344C8102000F80018
:1055A00000FF0000000000000000000000000000FC
:1055B0000000000000003F404448474070000F409A
:1055C000807F0000000000000000000000000000DC
:1055D000000000000000FE92929292FE929292923F
:1055E000FE000000000000000000000000000000BD
:1055F00000000000403801003C4040424C404070F8
:10560000050830000000000000000000000000005D
:10561000000000004042CC0000E2222A2AF22A26A2
:1056200022E0000000000000000000000000000078
:105630000000000080403F4080FF898989BF89A920
:10564000C9BF800000000000000000000000000052
:1056500000000000008060F80700042424252624B0
:1056600024240400000000000000000000000000EE
:1056700000000000010000FF000000F9494949490D
:1056800049F90000000000000000000000000000D8
:105690000000000080828282FE8282828282FE82FC
:1056A0008282800000000000000000000000000076
:1056B00000000000008040300F0000000000FF00EC
:1056C00000000000000000000000000000000000DA
:1056D000000000000000181610D0B897909090922B
:1056E0009410000000000000000000000000000016
:1056F000000000000020108C8380414628102844C0
:105700004380800000000000000000000000000056
:10571000000000001010D0FF901000FC24E42422B0
:1057200023E2000000000000000000000000000074
:1057300000000000040300FF0083601F8041261862
:105740002641800000000000000000000000000072
:1057500000000000008060F807404848E85F4848C3
:105760004840400000000000000000000000000071
:1057700000000000010000FF0000020B1222D20A0C
:105780000600000000000000000000000000000013
:10579000000000000000FC04D4545454D4047F845E
:1057A000C5360400000000000000000000000000FA
:1057B000000000008866010063828292AB8482C18F
:1057C0000224CF00000000000000000000000000E4
:1057D0000000000080809E9292929EE0809EB2D255
:1057E000929E800000000000000000000000000009
:1057F000000000000808F4949292F10001F29294E3
:1058000094F8080000000000000000000000000004
:105810000000000090523410FF10345280708F0846
:1058200008F8080000000000000000000000000070
:1058300000000000829A566322528E008040330C92
:105840003340800000000000000000000000000065
:10585000000000001010FF109000FE929292F29251
:10586000929E800000000000000000000000000088
:105870000000000042827F0180601F00FC4447441A
:1058800044FC0000000000000000000000000000D8
:1058900000000000010002000400060008000A00E9
:1058A0000C001000200040008000000100000000FB
:1058B00000000000000000000000000000000000E8
:1058C00000000000000000000000000001000000D7
:1058D00002000000030000000400000006000000B9
:1058E00007000000080000000900000000000000A0
:1058F00000000000000000000000000001000000A7
:1059000002000000030000000400000000404040CE
:105910004040404040404141414141404040404082
:10592000404040404040404040404040400502022E
:1059300002020202020202020202020202202020ED
:105940002020202020202002020202020202909049
:105950009090909010101010101010101010101047
:10596000101010101010101002020202020288889B
:1059700088888888080808080808080808080808A7
:10598000080808080808080802020202400000008F
:105990000D5900084D454D4245525F5258207072D6
:1059A0006F746F3D2575207372633D257520667792
:1059B000643D257520746F3D2575206473743D2505
:1059C0007520706B743D257520727373693D2D25AC
:1059D0006464426D0D0A00004D454D4245525F44DE
:1059E0004154415F5258207372633D25752066779C
:1059F000643D257520746F3D2575206473743D25C5
:105A00007520706B743D257520743D25752E2575A8
:105A100020683D25752E25750D0A00003C5A0008AA
:105A200000000020A8000000B4290008E45A000883
:105A3000A8000020F80A0000C429000800000000A7
:105A400000000000FF010000000000000000000056
:105A5000204E0000000000000A00000000000000CE
:105A60000000000000000000000000000000000036
:105A7000C00007FFFF01612009D0C1000000000045
:105A80000000000000000000010100000000000014
:105A90000000000000000000000000000000000006
:105AA00000000100000000000000000000000000F5
:105AB00000000001010000000000000001000000E3
:105AC00004000000000000000024F40000000000BA
:105AD00000000000000000000000000000000000C6
